:04000000F6EF67F0C0
:10CFC800026E0250E9EC67F01200016E9EA8FED7CF
:10CFD80001C0ADFF1200300ED36E040ED26E000EEB
:10CFE8009B6E12000001E26BE16B000EF86E00010F
:10CFF80086EF7BF08EEC68F0EFEC67F007EC68F0FA
:10D0080012EC68F01200010EC26E000EC16E920E94
:10D01800C06E000EC36E000EC46E1200080EB86E0D
:10D02800800EAB6E240EAC6E190EAF6E000EB06E95
:10D038001200015002100310D8B406D0000E011AD5
:10D04800000E021A800E031A01C001F002C002F09D
:10D0580003C003F012000F501102F3CF13F0F4CF06
:10D0680014F00F501202F350142610501102F3500E
:10D07800142613C00FF014C010F01200056E05C07E
:10D0880003F003460346C2500318830B0318C26E0D
:10D09800C280C282C2B2FED7C450046E036AC350B3
:10D0A8000324016E000E0420026E120006AE0FD09B
:10D0B80004C001F005C002F006C003F01DEC68F0E2
:10D0C80001C004F002C005F003C006F0120004C05D
:10D0D80004F005C005F006C006F01200000E186E38
:10D0E80016AE06D0156C161ED8B0162A010E186E8C
:10D0F80015C001F016C002F0036A8E0E046E18C047
:10D1080005F0B5EC6AF001C015F002C016F003C0D6
:10D1180017F01200000E8D6E000E8C6E000E896ED8
:10D12800000E8A6E000E8B6E070E966E92689368DC
:10D13800BF0E946EFD0E956EBC0E0F013A6F3F0E3A
:10D14800396F3B69070E3C6F2F0E386F6168F19E8F
:10D158001200465047104810D8B406D0000E461AA0
:10D16800000E471A800E481A43C037F044C038F002
:10D1780045C039F046C03AF047C03BF048C03CF0E3
:10D18800F1EC70F037C043F038C044F039C045F0D6
:10D1980012008E0E116E06D0D8900C320B320A3265
:10D1A8000932112A000E09140D6E000E0A140E6EB3
:10D1B800000E0B140F6EFF0E0C14106E0D500E1097
:10D1C8000F101010D8A4E8D709C001F00AC002F067
:10D1D8000BC003F011C004F0000E056EB5EC6AF048
:10D1E80001C009F002C00AF003C00BF0120012508F
:10D1F800131014101510D8B424D0010E166E06D0D2
:10D20800D8901236133614361536162A15AEF8D7B6
:10D2180012500E5C13500F581450105815501158D6
:10D22800D8A008D012500E5E13500F5A1450105A3E
:10D238001550115AD8901532143213321232162E54
:10D24800E7D70EC00EF00FC00FF010C010F011C0DD
:10D2580011F01200000E066E02AE06D0016C021E1E
:10D26800D8B0022A010E066E04AE04D0036C041E68
:10D27800D8B0042A03500410D8B418D0010E056E93
:10D2880004D0D89003360436052A04AEFAD70350E2
:10D29800015C04500258D8A004D00350015E045029
:10D2A800025AD89004320332052EF1D70650D8B46A
:10D2B80004D0016C021ED8B0022A01C001F002C0DD
:10D2C80002F01200000E476E8E0E466E41AE11D06F
:10D2D800411E401E3F1E3E6C000E3F22402241224E
:10D2E800010E476E06D0D890413240323F323E326E
:10D2F800462A000E3E14426E000E3F14436E000E86
:10D308004014446EFF0E4114456E425043104410C1
:10D318004510D8A4E8D73EC001F03FC002F040C095
:10D3280003F046C004F047C005F0B5EC6AF001C050
:10D338003EF002C03FF003C040F01200000E096E3C
:10D34800000E0A6E000E0B6E000E0C6E05500610D5
:10D3580007100810D8B42AD0010E0D6E06D0D89048
:10D3680005360636073608360D2A08AEF8D7D8909F
:10D3780009360A360B360C360550015C0650025841
:10D388000750035808500458D8A009D00550015E2A
:10D398000650025A0750035A0850045A0980D89078
:10D3A80008320732063205320D2EE1D709C001F0E6
:10D3B8000AC002F00BC003F00CC004F01200000E0B
:10D3C8000C6E0AAE06D0096C0A1ED8B00A2A010EE5
:10D3D8000C6E08AE06D0076C081ED8B0082A010EDD
:10D3E8000C1A000E0E6E000E0D6E09500A10D8B4FD
:10D3F8001CD0010E0B6E04D0D89009360A360B2AC1
:10D408000AAEFAD7D8900D360E360950075C0A5086
:10D418000858D8A005D00950075E0A50085A0D8050
:10D42800D8900A3209320B2EEDD70C50D8B404D05C
:10D438000D6C0E1ED8B00E2A0DC007F00EC008F0F5
:10D44800120009AE16D007C00DF008C00EF009C0D2
:10D458000FF00D1E0E1E0F1E0D2A000E0E220F229B
:10D46800000E0D24076E000E0E20086E800E0F2091
:10D47800096E0CAE16D00AC00DF00BC00EF00CC031
:10D488000FF00D1E0E1E0F1E0D2A000E0E220F226B
:10D49800000E0D240A6E000E0E200B6E800E0F205B
:10D4A8000C6E000E071A000E081A800E091A000EDC
:10D4B8000A1A000E0B1A800E0C1A0A50075C0B5041
:10D4C80008580C500958D8B002D0D8901200D8800B
:10D4D8001200015002100310D8A40FD004C0D9FFC5
:10D4E80005C0DAFF000EDE6E000EDD6E000E016E66
:10D4F800000E026E000E036E120003507F0B066EC4
:10D50800076AD8900636073604C0D9FF05C0DAFF87
:10D5180006C0DEFF07C0DDFF02AE03D0066A062A9A
:10D5280001D0066A065004C0D9FF05C0DAFFDE1232
:10D53800000EDD1204C0D9FF05C0DAFF820EDE2618
:10D54800FF0EDD2203800382038403860388038A97
:10D55800039C029E01C001F002C002F003C003F068
:10D5680012000450D8B405D0015002100310D8A4FA
:10D578000CD0000E016E000E026E000E036E12003B
:10D58800042AD890033202320132000E0114066ECA
:10D59800000E0214076EFE0E0314086E06500710E4
:10D5A8000810D8B40CD0ECD7042A010E0126000EBE
:10D5B8000222000E0322D890033202320132000EFA
:10D5C8000114066E000E0214076EFF0E0314086E97
:10D5D800065007100810D8B406D0E6D70406D8902D
:10D5E80001360236033602BE03D0020E0460F6D7B7
:10D5F80004A0029ED8900432045003120550D8A407
:10D60800038E01C001F002C002F003C003F0120053
:10D618004F5050105110D8A407D0000E4F6E000E76
:10D62800506E000E516E120051507F0B546E556AA9
:10D63800D89054365536545052265550532250AE31
:10D6480003D0546A542A01D0546A54505226000E0A
:10D65800532253AE0CD0000E0001E26F220EE16F90
:10D66800000E4F6E000E506E000E516E120053BE2B
:10D6780016D05304D8A013D0000E0001E26F220E7A
:10D68800E16F51AE06D0FF0E4F6E7F0E506EFF0E4B
:10D69800ECD7FF0E4F6E7F0E506E7F0EE6D75334D9
:10D6A8005330556E5230546E51505418800B5418E4
:10D6B800516E52C054F0010E541654325432505028
:10D6C80054187F0B5418506E4FC04FF050C050F094
:10D6D80051C051F0120048C00FF049C010F0000EC0
:10D6E800126E030E116E2FEC68F046C04AF047C068
:10D6F8004BF00F504A2610504B224AC0F6FF4BC041
:10D70800F7FF0900F5CF4CF00900F5CF4DF00A00FE
:10D71800F5CF4EF03ED04CC01CF04DC01DF04EC0B1
:10D728001EF043C019F044C01AF045C01BF0BAEC13
:10D738006CF019C037F01AC038F01BC039F0000E71
:10D74800126E030E116E4806D8A0490648C00FF0A5
:10D7580049C010F02FEC68F046C04AF047C04BF0C3
:10D768000F504A2610504B224AC0F6FF4BC0F7FF15
:10D778000900F5CF3AF00900F5CF3BF00A00F5CFE4
:10D788003CF0F1EC70F037C04CF038C04DF039C0C7
:10D798004EF048504910D8A4BED74CC043F04DC0F5
:10D7A80044F04EC045F0120048C001F049C002F0F4
:10D7B8004AC003F04E0E046E000E056E6DEC6AF062
:10D7C8004FAE10D04AAE07D0000E486E800E496E9C
:10D7D800BF0E4A6E1200000E486E000E496E000E13
:10D7E8004A6E12004F5004E1150E4E5CD8A007D0C7
:10D7F80048C048F049C049F04AC04AF0120048C041
:10D808002FF049C030F04AC031F034EC6DF02FC031
:10D818003EF030C03FF031C040F032C041F066EC1D
:10D8280069F03EC04BF03FC04CF040C04DF048C0DE
:10D8380007F049C008F04AC009F04BC00AF04CC0D4
:10D848000BF04DC00CF025EC6AF0D8B015D04BC0E9
:10D8580037F04CC038F04DC039F0000E3A6E800EEB
:10D868003B6EBF0E3C6EF1EC70F037C048F038C02C
:10D8780049F039C04AF012004BC048F04CC049F09A
:10D888004DC04AF012002AC02EF02F6A306A29349F
:10D898002E3601E32F802E50356E3550D8A407D090
:10D8A800000E286E000E296E000E2A6E12002DC082
:10D8B8002EF02F6A306A2C342E3601E32F802E503A
:10D8C800366E3650D8A407D0000E286E000E296E8A
:10D8D800000E2A6E1200000E326E000E336E000E1D
:10D8E800346E3650890F355E2AC036F02D50361A00
:10D8F800800E3616298EFF0E2816FF0E2916000EEA
:10D908002A162C8EFF0E2B16FF0E2C16000E2D1627
:10D91800180E316ED8903236333634362B50285C98
:10D928002C5029582D502A58D8A007D02B50285EA3
:10D938002C50295A2D502A5A3280D8902836293608
:10D948002A36312EE7D732C001F033C002F034C096
:10D9580003F035C004F036C005F0B5EC6AF001C03C
:10D9680028F002C029F003C02AF012001BC01FF0E3
:10D97800206A216A1A341F3601E320801F50226E64
:10D988002250D8A407D0000E196E000E1A6E000E91
:10D998001B6E12001EC01FF0206A216A1D341F363C
:10D9A80001E320801F50276E2750D8A407D0000E0F
:10D9B800196E000E1A6E000E1B6E120027507B0F98
:10D9C80022261BC027F01E50271A800E27161A8EF3
:10D9D8001D8EFF0E1C16FF0E1D16000E1E16000EC5
:10D9E800236E000E246E000E256E070E266E19A0FB
:10D9F80006D01C5023261D5024221E502522D890C4
:10DA08001B321A321932D8901C361D361E36262E75
:10DA1800EED7090E266E19A006D01C5023261D50DD
:10DA280024221E502522D8901B321A321932D8903F
:10DA3800253224322332262EEED723C001F024C00B
:10DA480002F025C003F022C004F027C005F0B5ECB1
:10DA58006AF001C019F002C01AF003C01BF01200EE
:10DA680031C033F0346A356A3034333601E33480F8
:10DA780033503D6E3D50D8A409D0000E2F6E000ED5
:10DA8800306E000E316E000E326E1200170E336EBD
:10DA98002FC034F030C035F031C036F03328376E3F
:10DAA80004D0D890363235323432372EFAD7345043
:10DAB800386E308EFF0E2F16FF0E3016000E311600
:10DAC8002F50396E30503A6E31503B6E3C6A8E0E94
:10DAD8003D5E3DAE16D03D50800A8F0FD8B009D0BC
:10DAE800000E2F6E000E306E000E316E000E326E7C
:10DAF8001200D8903C323B323A3239323D3EF9D7A7
:10DB080015D0170E3D640FD0000E2F6E000E306E2C
:10DB1800000E316E000E326E1200D89039363A3649
:10DB28003B363C363D063D50D8A4F7D73850D8B4DC
:10DB380008D03C1E3B1E3A1E396C000E3A223B228E
:10DB48003C2239C02FF03AC030F03BC031F03CC025
:10DB580032F0120051AE0CD0000E0001E26F210E1F
:10DB6800E16F000E4F6E000E506E000E516E1200E7
:10DB78004F5050105110D8A40CD0000E0001E26F85
:10DB8800220EE16F000E4F6E000E506E000E516EA9
:10DB98001200000E1C6E000E1D6E400E1E6E520E00
:10DBA800046E000E056E4FC001F050C002F051C067
:10DBB80003F06DEC6AF001C019F002C01AF003C05E
:10DBC8001BF0BAEC6CF019C037F01AC038F01BC063
:10DBD80039F0000E3A6E800E3B6EBF0E3C6EF1ECD3
:10DBE80070F037C04FF038C050F039C051F05206CD
:10DBF800D8A053064FC043F050C044F051C045F080
:10DC08002F0E466EFF0E476E000E496E080E486EC8
:10DC18006FEC6BF043C04FF044C050F045C051F07A
:10DC2800720E1C6E310E1D6E3F0E1E6E52C015F028
:10DC380053C016F072EC68F015C019F016C01AF04F
:10DC480017C01BF0BAEC6CF019C037F01AC038F0E6
:10DC58001BC039F04FC03AF050C03BF051C03CF007
:10DC6800F1EC70F037C04FF038C050F039C051F0C7
:10DC78001200033404340C6E0C50D8A409D0000EE2
:10DC8800016E000E026E000E036E000E046E12008E
:10DC9800063407340B6E0B50D8A409D0000E016E61
:10DCA800000E026E000E036E000E046E1200038E4C
:10DCB800FF0E0116FF0E0216FF0E0316000E0416C5
:10DCC800068EFF0E0416FF0E0516FF0E0616000E32
:10DCD8000716000E076E000E086E000E096E000E85
:10DCE8000A6E7F0E0C5E0B50A00F0C5E200E0B6EA2
:10DCF800D8900736083609360A360450015C0550B4
:10DD080002580650035807500458D8A009D00450A8
:10DD1800015E0550025A0650035A0750045A0780FC
:10DD2800D89001360236033604360B2EE1D70CAEF6
:10DD380016D00C50800A9F0FD8B009D0000E016E83
:10DD4800000E026E000E036E000E046E1200D890D4
:10DD58000A320932083207320C3EF9D715D01F0EA5
:10DD68000C640FD0000E016E000E026E000E036EE2
:10DD7800000E046E1200D8900736083609360A36A7
:10DD88000C060C50D8A4F7D707C001F008C002F061
:10DD980009C003F00AC004F0120003C007F0086AC3
:10DDA800096A0234073601E3088007500F6E0F50E6
:10DDB800D8A409D0000E016E000E026E000E036E8C
:10DDC800000E046E120006C007F0086A096A0534DE
:10DDD800073601E3088007500E6E0E50D8A409D00C
:10DDE800000E016E000E026E000E036E000E046E31
:10DDF8001200028EFF0E0116FF0E0216000E031609
:10DE0800058EFF0E0416FF0E0516000E0616000EF0
:10DE18000A6E000E0B6E000E0C6E000E0D6E7F0E5D
:10DE28000F5E0E50980F0F5E180E0E6ED8900A36C1
:10DE38000B360C360D360450015C0550025806505E
:10DE48000358D8A007D00450015E0550025A065066
:10DE5800035A0A80D8900136023603360E2EE6D7CA
:10DE68000FAE16D00F50800A970FD8B009D0000E09
:10DE7800016E000E026E000E036E000E046E12009C
:10DE8800D8900D320C320B320A320F3EF9D715D02A
:10DE9800170E0F640FD0000E016E000E026E000EFA
:10DEA800036E000E046E1200D8900A360B360C363C
:10DEB8000D360F060F50D8A4F7D70AC001F00BC0D3
:10DEC80002F00CC003F00DC004F01200000E0001B7
:10DED8006C6F605161116211D8A41DD0000E076EDD
:10DEE800000E086E000E096E63C00AF064C00BF0E5
:10DEF80065C00CF025EC6AF0D8A005D0000E000132
:10DF0800E26F210EE16F000E0001606F000E616F7D
:10DF1800000E626F1200635164116511D8A407D016
:10DF2800000E606F800E616F3F0E626F120062AF6D
:10DF380041D063C02FF064C030F065C031F034ECDC
:10DF48006DF02FC06DF030C06EF031C06FF032C090
:10DF580070F06DC009F06EC00AF06FC00BF070C0B1
:10DF68000CF0CDEC68F000016351091807E1645129
:10DF78000A1804E165510B18D8B40BD0000EE26FF3
:10DF8800210EE16F000E606F000E616F000E626F70
:10DF980012006D51010B6C6F60C001F061C002F09E
:10DFA80062C003F01DEC68F001C060F002C061F0CF
:10DFB80003C062F060C04FF061C050F062C051F021
:10DFC800AEEC6DF04FC066F050C067F051C068F01D
:10DFD80066C019F067C01AF068C01BF063C01CF077
:10DFE80064C01DF065C01EF0BAEC6CF019C069F091
:10DFF8001AC06AF01BC06BF069C056F06AC057F0CF
:10E008006BC058F0A9EC72F056C060F057C061F0D0
:10E0180058C062F000016C51D8B40FD060C001F054
:10E0280061C002F062C003F01DEC68F001C060F04E
:10E0380002C061F003C062F0120060C060F061C00D
:10E0480061F062C062F01200000E076E000E086EEA
:10E05800000E096E71C00AF072C00BF073C00CF0AC
:10E0680025EC6AF0D8A00ED0000173AF04D0000EE2
:10E07800E26F210EE16F000E716F000E726F000EDD
:10E08800736F120071C07AF072C07BF073C07CF0BD
:10E0980071C074F072C075F073C076F00001741F1F
:10E0A800751F761F742B000E75237623C80E7425F2
:10E0B800816F6E0E7521826FBE0E7621836FD890A8
:10E0C800833382338133000E7A5F800E7B5B000ED0
:10E0D8007C5B040E7D6F81C077F082C078F083C0CE
:10E0E80079F081C019F082C01AF083C01BF07AC0A1
:10E0F8001CF07BC01DF07CC01EF0BAEC6CF019C09F
:10E108007EF01AC07FF01BC080F07EC019F07FC07F
:10E118001AF080C01BF081C01CF082C01DF083C0C3
:10E128001EF0BAEC6CF019C07EF01AC07FF01BC06C
:10E1380080F07EC019F07FC01AF080C01BF081C04B
:10E148001CF082C01DF083C01EF0BAEC6CF019C040
:10E158007EF01AC07FF01BC080F081C019F082C029
:10E168001AF083C01BF0000E1C6EC00E1D6E3F0E11
:10E178001E6EBAEC6CF019C081F01AC082F01BC098
:10E1880083F081C043F082C044F083C045F07EC074
:10E1980046F07FC047F080C048F0ADEC68F043C05F
:10E1A80081F044C082F045C083F000017D2F93D7F1
:10E1B80081C019F082C01AF083C01BF071C01CF036
:10E1C80072C01DF073C01EF0BAEC6CF019C071F08B
:10E1D8001AC072F01BC073F0120039C03DF03E6ADD
:10E1E8003F6A38343D3601E33E803D50426E3CC0C4
:10E1F8003DF03E6A3F6A3B343D3601E33E803D5088
:10E20800416E4250D8B40BD04150425CD8B00ED0C9
:10E218004250000841243D6E180E3D6407D03AC0B4
:10E2280037F03BC038F03CC039F012004150D8B448
:10E238000BD04250415CD8B00ED041500008422467
:10E248003D6E180E3D6407D037C037F038C038F03F
:10E2580039C039F01200060E406E39BE408E3CBE01
:10E26800408C388EFF0E3716FF0E3816000E391602
:10E278003B8EFF0E3A16FF0E3B16000E3C16415021
:10E28800425CD8B01BD0D8903A363B363C36410673
:10E2980042504118D8B40DD0400640C03DF0070E9A
:10E2A8003D16D8B406D0EFD7D89039323832373245
:10E2B800422A41504218D8B41FD0F6D74250415C88
:10E2C800D8B01AD0D8903736383639364206425048
:10E2D8004118D8B40DD0400640C03DF0070E3D1699
:10E2E800D8B406D0EFD7D8903C323B323A32412AE4
:10E2F80041504218D8A4F7D740AE0CD0FF0E371AB9
:10E30800FF0E381AFF0E391A010E3726000E382272
:10E31800000E392240AC0CD0FF0E3A1AFF0E3B1A01
:10E32800FF0E3C1A010E3A26000E3B22000E3C223C
:10E33800000E406E37503A2638503B2239503C2266
:10E348003CAE0ED0FF0E3A1AFF0E3B1AFF0E3C1AD7
:10E35800010E3A26000E3B22000E3C22010E406EB2
:10E368003AC001F03BC002F03CC003F042C004F0E8
:10E3780040C005F0B5EC6AF001C037F002C038F0D3
:10E3880003C039F0120084C004F085C005F086C0CF
:10E3980006F05AEC68F004C091F005C092F006C08F
:10E3A80093F00001915192119311D8A407D0000E57
:10E3B800846F000E856F000E866F1200000E076EC8
:10E3C800800E086E3F0E096E91C00AF092C00BF0E5
:10E3D80093C00CF025EC6AF0D8B002D0010E01D041
:10E3E800000E00018D6F8D51D8B414D0000E286E28
:10E3F800800E296E3F0E2A6E91C02BF092C02CF031
:10E4080093C02DF047EC6CF028C091F029C092F031
:10E418002AC093F091C019F092C01AF093C01BF073
:10E4280091C01CF092C01DF093C01EF0BAEC6CF0C5
:10E4380019C08EF01AC08FF01BC090F08EC043F048
:10E448008FC044F090C045F05C0E466EFF0E476EDC
:10E45800000E496E040E486E6FEC6BF043C087F0F7
:10E4680044C088F045C089F08EC043F08FC044F0A6
:10E4780090C045F04A0E466EFF0E476E000E496E7C
:10E48800050E486E6FEC6BF043C08AF044C08BF009
:10E4980045C08CF091C019F092C01AF093C01BF0DF
:10E4A80087C02BF088C02CF089C02DF08AC028F0D6
:10E4B8008BC029F08CC02AF047EC6CF028C01CF007
:10E4C80029C01DF02AC01EF0BAEC6CF019C091F0FA
:10E4D8001AC092F01BC093F000018D51D8B41CD023
:10E4E80091C001F092C002F093C003F01DEC68F0F7
:10E4F80001C037F002C038F003C039F0100E3A6E90
:10E50800C90E3B6E3F0E3C6EF1EC70F037C091F0D7
:10E5180038C092F039C093F0000186BF07D091C08F
:10E5280084F092C085F093C086F0120091C001F08B
:10E5380092C002F093C003F01DEC68F001C084F0B3
:10E5480002C085F003C086F01200565057105810CC
:10E55800D8A407D0000E566E800E576E3F0E586E28
:10E568001200720E076E310E086E440E096E56C008
:10E578000AF057C00BF058C00CF025EC6AF0D8B080
:10E588000CD0000E0001E26F220EE16FFF0E566EF6
:10E598007F0E576E7F0E586E120056C007F057C098
:10E5A80008F058C009F0490E0A6E3A0E0B6EC40EF8
:10E5B8000C6E25EC6AF0D8B00CD0000E0001E26FAA
:10E5C800220EE16F000E566E000E576E000E586E4A
:10E5D800120058AE02D0010E01D0000E5E6E5E50E1
:10E5E800D8B40ED056C001F057C002F058C003F09E
:10E5F8001DEC68F001C056F002C057F003C058F097
:10E6080056C019F057C01AF058C01BF0AA0E1C6E5D
:10E61800B80E1D6E3F0E1E6EBAEC6CF019C056F0A7
:10E628001AC057F01BC058F056C048F057C049F000
:10E6380058C04AF0D8EC6BF048C059F049C05AF0BD
:10E648004AC05BF059C02FF05AC030F05BC031F0BF
:10E6580034EC6DF02FC05CF030C05DF056C043F074
:10E6680057C044F058C045F05CC015F05DC016F0C6
:10E6780072EC68F015C046F016C047F017C048F0B5
:10E68800ADEC68F043C056F044C057F045C058F0B0
:10E6980056C043F057C044F058C045F0110E466EBE
:10E6A800FF0E476E000E496E090E486E6FEC6BF058
:10E6B80043C04FF044C050F045C051F05CC052F028
:10E6C8005DC053F00CEC6BF04FC056F050C057F0E3
:10E6D80051C058F05E50D8B425D056280EE17F0EB0
:10E6E80057180BE17F0E5818D8A407D0000E566EA5
:10E6F800000E576E000E586E1200000E286E800E27
:10E70800296E3F0E2A6E56C02BF057C02CF058C009
:10E718002DF047EC6CF028C056F029C057F02AC0FD
:10E7280058F0120056C056F057C057F058C058F06D
:10E738001200316E6D0E31649FD0000E126E030E02
:10E74800116E000E0A6E0A0E096E000E046E640E3B
:10E75800036E31C001F0026A2EEC69F001C007F0C7
:10E7680002C008F0E3EC69F0090E07240F6E000EF2
:10E778000820106E2FEC68F0EA0E0F24F66EFE0EDD
:10E788001020F76E0900F5CF1CF00900F5CF1DF039
:10E798000A00F5CF1EF0000E0A6E640E096E31C035
:10E7A80007F0086AE3EC69F0120E07240F6E000EFA
:10E7B8000820106E000E126E030E116E2FEC68F01A
:10E7C800EA0E0F24F66EFE0E1020F76E0900F5CF44
:10E7D80019F00900F5CF1AF00A00F5CF1BF0BAECD2
:10E7E8006CF019C02EF01AC02FF01BC030F0000ECC
:10E7F800126E030E116E000E046E0A0E036E31C007
:10E8080001F0026A2EEC69F001C00FF002C010F0AE
:10E818002FEC68F0EA0E0F24F66EFE0E1020F76E4D
:10E828000900F5CF1CF00900F5CF1DF00A00F5CF5F
:10E838001EF02EC019F02FC01AF030C01BF0BAEC31
:10E848006CF019C02BF01AC02CF01BC02DF02BC097
:10E8580019F02CC01AF02DC01BF0000E1C6E000E13
:10E868001D6E3F0E1E6EBAEC6CF019C028F01AC06F
:10E8780029F01BC02AF012000A0E316463D0000E82
:10E88800126E030E116E000E046E0A0E036E31C076
:10E8980001F0026A2EEC69F001C00FF002C010F01E
:10E8A8002FEC68F0EA0E0F24F66EFE0E1020F76EBD
:10E8B8000900F5CF1CF00900F5CF1DF00A00F5CFCF
:10E8C8001EF0000E0A6E0A0E096E31C007F0086AC3
:10E8D800E3EC69F0090E07240F6E000E0820106E95
:10E8E800000E126E030E116E2FEC68F0EA0E0F2464
:10E8F800F66EFE0E1020F76E0900F5CF19F009002C
:10E90800F5CF1AF00A00F5CF1BF0BAEC6CF019C07D
:10E918002EF01AC02FF01BC030F02EC019F02FC0F7
:10E928001AF030C01BF0000E1C6E000E1D6E3F0E5C
:10E938001E6EBAEC6CF019C028F01AC029F01BC082
:10E948002AF012003150030DEA0EF324F66EFE0E83
:10E95800F420F76E0900F5CF19F00900F5CF1AF089
:10E968000A00F5CF1BF0000E1C6E000E1D6E3F0E48
:10E978001E6EBAEC6CF019C028F01AC029F01BC042
:10E988002AF012000001975198119911D8A430D09B
:10E99800945195119611D8A40BD0000EE26F210E58
:10E9A800E16F000E946F000E956F000E966F1200C7
:10E9B800000E076E000E086E000E096E94C00AF075
:10E9C80095C00BF096C00CF025EC6AF0D8B008D0D2
:10E9D800100E0001946FC90E956F3F0E966F1200CE
:10E9E800100E0001946FC90E956FBF0E966F12003E
:10E9F800945195119611D8A420D0000E076E000EE0
:10EA0800086E000E096E97C00AF098C00BF099C006
:10EA18000CF025EC6AF0D8B008D0000E0001946F15
:10EA2800000E956F000E966F1200100E0001946F85
:10EA3800490E956F400E966F120097C004F098C06B
:10EA480005F099C006F05AEC68F004C007F005C05C
:10EA580008F006C009F094C004F095C005F096C00F
:10EA680006F05AEC68F004C00AF005C00BF006C0C6
:10EA78000CF025EC6AF0D8A057D094C028F095C0C7
:10EA880029F096C02AF097C02BF098C02CF099C0B6
:10EA98002DF047EC6CF028C09DF029C09EF02AC0EC
:10EAA8009FF09DC084F09EC085F09FC086F0C7ECA3
:10EAB80071F084C0A0F085C0A1F086C0A2F000016A
:10EAC80099AF2BD096BF15D0A0C037F0A1C038F0B1
:10EAD800A2C039F0100E3A6E490E3B6E400E3C6EE5
:10EAE800F1EC70F037C0A0F038C0A1F039C0A2F046
:10EAF80014D0A0C043F0A1C044F0A2C045F0100E4D
:10EB0800466E490E476E400E486EADEC68F043C045
:10EB1800A0F044C0A1F045C0A2F0A0C094F0A1C0EC
:10EB280095F0A2C096F0120094C02BF095C02CF07E
:10EB380096C02DF097C028F098C029F099C02AF007
:10EB480047EC6CF028C09DF029C09EF02AC09FF0C9
:10EB58009DC084F09EC085F09FC086F0C7EC71F020
:10EB680084C09AF085C09BF086C09CF09AC001F0E2
:10EB78009BC002F09CC003F01DEC68F001C0A0F03F
:10EB880002C0A1F003C0A2F0000196AF15D0A0C04A
:10EB980043F0A1C044F0A2C045F0100E466EC90E65
:10EBA800476E3F0E486EADEC68F043C0A0F044C01D
:10EBB800A1F045C0A2F014D0A0C037F0A1C038F031
:10EBC800A2C039F0100E3A6EC90E3B6E3F0E3C6E75
:10EBD800F1EC70F037C0A0F038C0A1F039C0A2F055
:10EBE800A0C094F0A1C095F0A2C096F012002E6EBD
:10EBF8002EAE01D12E6C2E50800A120FD8A091D0C3
:10EC0800000E126E030E116E000E0A6E0A0E096EC9
:10EC1800000E046E640E036E2E50016E026A01BE71
:10EC280002062EEC69F001C007F002C008F0E3EC20
:10EC380069F0090E07240F6E000E0820106E2FECE5
:10EC480068F0EA0E0F24F66EFE0E1020F76E09002B
:10EC5800F5CF1CF00900F5CF1DF00A00F5CF1EF026
:10EC6800000E0A6E640E096E2E50076E086A07BE03
:10EC78000806E3EC69F0120E07240F6E000E082058
:10EC8800106E000E126E030E116E2FEC68F0EA0E75
:10EC98000F24F66EFE0E1020F76E0900F5CF19F05E
:10ECA8000900F5CF1AF00A00F5CF1BF0BAEC6CF0AA
:10ECB80019C02BF01AC02CF01BC02DF02BC019F076
:10ECC8002CC01AF02DC01BF0000E126E030E116E30
:10ECD800000E046E0A0E036E2E50016E026A01BE0B
:10ECE80002062EEC69F001C00FF002C010F02FEC04
:10ECF80068F0EA0E0F24F66EFE0E1020F76E09007B
:10ED0800F5CF1CF00900F5CF1DF00A00F5CF1EF075
:10ED1800BAEC6CF019C028F01AC029F01BC02AF010
:10ED280012002E50800A750FD8A053D0000E0A6E1C
:10ED38000A0E096E2E50076E086A07BE0806E3EC35
:10ED480069F0090E07240F6E000E0820106E000EE1
:10ED5800126E030E116E2FEC68F0EA0E0F24F66E99
:10ED6800FE0E1020F76E0900F5CF19F00900F5CF57
:10ED78001AF00A00F5CF1BF0000E126E030E116E8A
:10ED8800000E046E0A0E036E2E50016E026A01BE5A
:10ED980002062EEC69F001C00FF002C010F02FEC53
:10EDA80068F0EA0E0F24F66EFE0E1020F76E0900CA
:10EDB800F5CF1CF00900F5CF1DF00A00F5CF1EF0C5
:10EDC800BAEC6CF019C028F01AC029F01BC02AF060
:10EDD80012002E50030DEA0EF324F66EFE0EF420F8
:10EDE800F76E0900F5CF28F00900F5CF29F00A00E1
:10EDF800F5CF2AF012002E50800A120FD8A091D019
:10EE0800000E126E030E116E000E0A6E0A0E096EC7
:10EE1800000E046E640E036E2E50016E026A01BE6F
:10EE280002062EEC69F001C007F002C008F0E3EC1E
:10EE380069F0090E07240F6E000E0820106E2FECE3
:10EE480068F0C30E0F24F66EFE0E1020F76E090050
:10EE5800F5CF1CF00900F5CF1DF00A00F5CF1EF024
:10EE6800000E0A6E640E096E2E50076E086A07BE01
:10EE78000806E3EC69F0120E07240F6E000E082056
:10EE8800106E000E126E030E116E2FEC68F0C30E9A
:10EE98000F24F66EFE0E1020F76E0900F5CF19F05C
:10EEA8000900F5CF1AF00A00F5CF1BF0BAEC6CF0A8
:10EEB80019C02BF01AC02CF01BC02DF02BC019F074
:10EEC8002CC01AF02DC01BF0000E126E030E116E2E
:10EED800000E046E0A0E036E2E50016E026A01BE09
:10EEE80002062EEC69F001C00FF002C010F02FEC02
:10EEF80068F0C30E0F24F66EFE0E1020F76E0900A0
:10EF0800F5CF1CF00900F5CF1DF00A00F5CF1EF073
:10EF1800BAEC6CF019C028F01AC029F01BC02AF00E
:10EF280012002E50800A750FD8A053D0000E0A6E1A
:10EF38000A0E096E2E50076E086A07BE0806E3EC33
:10EF480069F0090E07240F6E000E0820106E000EDF
:10EF5800126E030E116E2FEC68F0C30E0F24F66EBE
:10EF6800FE0E1020F76E0900F5CF19F00900F5CF55
:10EF78001AF00A00F5CF1BF0000E126E030E116E88
:10EF8800000E046E0A0E036E2E50016E026A01BE58
:10EF980002062EEC69F001C00FF002C010F02FEC51
:10EFA80068F0C30E0F24F66EFE0E1020F76E0900EF
:10EFB800F5CF1CF00900F5CF1DF00A00F5CF1EF0C3
:10EFC800BAEC6CF019C028F01AC029F01BC02AF05E
:10EFD80012002E50030DC30EF324F66EFE0EF4201D
:10EFE800F76E0900F5CF28F00900F5CF29F00A00DF
:10EFF800F5CF2AF012004B0E0001636F000E646F0C
:10F0080073D3250E7619D8B404D07651E4EC67F0A2
:10F018006BD3000E0001666F000E656F02D0668527
:10F0280016D049C0F6FF4AC0F7FF494A4A2A0800E5
:10F03800F5CF76F07651000AD8B41200640AD8B435
:10F0480006D0020AD8B4EBD70F0AD8A44DD3070EBE
:10F058006615D8B4B2D2000E686F060E676F63C02B
:10F06800D9FF64C0DAFFDECF73F0DECF74F0DDCFF6
:10F0780075F0030E6327000E642375AF11D073C0BB
:10F0880001F074C002F075C003F01DEC68F001C017
:10F0980073F002C074F003C075F0030E000165132D
:10F0A800000E6E6F000E6D6F735174117511D8B428
:10F0B80086D0820E4E6EFF0E4F6E73C050F074C035
:10F0C80051F075C052F076C053F0100E05D0D890AC
:10F0D8005332523251325032E82EF9D750504E2422
:10F0E8006D6F000E4F206E6F6D07D8A06E076DC054
:10F0F8000FF06EC010F0000E126E030E116E2FECA2
:10F1080068F00FC06DF010C06EF06DC007F06EC0F3
:10F1180008F0000E0A6E0A0E096EE3EC69F007C0EB
:10F128006DF008C06EF000016EAF03D06D07D8A077
:10F138006E076D510008FBEC75F028C06FF029C010
:10F1480070F02AC071F06FC019F070C01AF071C069
:10F158001BF073C01CF074C01DF075C01EF0BAEC33
:10F168006CF019C06FF01AC070F01BC071F06FC05E
:10F1780007F070C008F071C009F0000E0A6E800E2A
:10F188000B6E3F0E0C6E25EC6AF0D8B005D000016E
:10F198006D07D8A06E0713D06FC007F070C008F0D5
:10F1A80071C009F0000E0A6E200E0B6E410E0C6E37
:10F1B80025EC6AF0D8A003D000016D4B6E2B00013E
:10F1C80068BF06D068511BE10D0E675DD8B017D037
:10F1D80073C037F074C038F075C039F067519DECD2
:10F1E80073F028C03AF029C03BF02AC03CF0F1EC9B
:10F1F80070F037C073F038C074F039C075F0000192
:10F208006EBF06D06E5120E10A0E6D5DD8B01CD0DD
:10F21800735174117511D8B456D073C02FF074C0DF
:10F2280030F075C031F034EC6DF02F5030103110E3
:10F238003210D8A448D000016EBF45D06E5104E109
:10F24800020E6D5DD8A03FD06FC007F070C008F007
:10F2580071C009F0700E0A6E890E0B6E400E0C6EAE
:10F2680025EC6AF0D8B003D00001F70E02D00001F7
:10F27800F80E6D27FF0E6E236D51FBEC75F028C05C
:10F288006FF029C070F02AC071F073C001F074C02B
:10F2980002F075C003F06FC004F070C005F071C0D3
:10F2A80006F0D1EC6EF001C069F002C06AF003C04C
:10F2B8006BF004C06CF0000E0001736F000E746FE9
:10F2C800000E756F33D073C02FF074C030F075C066
:10F2D80031F034EC6DF02FC069F030C06AF031C005
:10F2E8006BF032C06CF073C043F074C044F075C06A
:10F2F80045F069C009F06AC00AF06BC00BF06CC039
:10F308000CF0CDEC68F009C046F00AC047F00BC01D
:10F3180048F0ADEC68F043C073F044C074F045C0E9
:10F3280075F0000E00016E6F000E6D6F010E766FA6
:10F338000A0E7619D8B418D07651040D9B0EF32412
:10F34800F66EFE0EF420F76E0900F550695D0900AF
:10F35800F5506A590900F5506B590900F5506C5978
:10F36800D8A002D0762BE4D7030E65154E6E000E9A
:10F3780066154F6E4E504F10D8B44AD02D0EE4EC9F
:10F3880067F046D069C001F06AC002F06BC003F0B4
:10F398006CC004F000017651040D9B0EF324F66E48
:10F3A800FE0EF420F76E0900F5CF05F00900F5CF41
:10F3B80006F00900F5CF07F00A00F5CF08F0A2EC37
:10F3C80069F001C06FF002C070F003C071F004C0B2
:10F3D80072F06FC00EF070C00FF071C010F072C004
:10F3E80011F00A0E126E000E136E000E146E000E4F
:10F3F800156EFBEC68F00EC06FF00FC070F010C017
:10F4080071F011C072F000016F51300FE4EC67F039
:10F41800000176077629D8B408D0B4D7300EE4ECCA
:10F4280067F000016D07D8A06E076EBF05D06E515A
:10F43800F5E16D05D8B0F2D768BF09D0685104E18D
:10F44800090E675DD8A003D0080E766F02D067C09A
:10F4580076F07651675F000E76BFFF0E685B7651D7
:10F46800D8B403D02E0EE4EC67F000017651FBEC23
:10F4780075F028C060F029C061F02AC062F073C03E
:10F488001CF074C01DF075C01EF060C019F061C09A
:10F498001AF062C01BF0BAEC6CF019C02FF01AC059
:10F4A80030F01BC031F034EC6DF02FC069F030C083
:10F4B8006AF031C06BF032C06CF06DD069C001F0F9
:10F4C8006AC002F06BC003F06CC004F00001765112
:10F4D800040D9B0EF324F66EFE0EF420F76E090061
:10F4E800F5CF05F00900F5CF06F00900F5CF07F0D4
:10F4F8000A00F5CF08F0A2EC69F001C06FF002C075
:10F5080070F003C071F004C072F06FC00EF070C0EC
:10F518000FF071C010F072C011F00A0E126E000EDA
:10F52800136E000E146E000E156EFBEC68F00EC024
:10F538006FF00FC070F010C071F011C072F00001D0
:10F548006F51300FE4EC67F069C00EF06AC00FF03D
:10F558006BC010F06CC011F000017651040D9B0EC9
:10F56800F324F66EFE0EF420F76E0900F5CF12F0C4
:10F578000900F5CF13F00900F5CF14F00A00F5CF14
:10F5880015F0FBEC68F00EC069F00FC06AF010C00F
:10F598006BF011C06CF0000176077629D8B408D05A
:10F5A8008DD7300EE4EC67F000016707D8A0680734
:10F5B80067516811D8B498D0F4D763C0D9FF64C034
:10F5C800DAFFDECF69F0DDCF6AF0000E6ABFFF0E0A
:10F5D8006B6F6C6F020E6327000E64236CAF0AD04A
:10F5E800030E65136C1F6B1F6A1F696D000E6A237B
:10F5F8006B236C23010E766F0A0E7619D8B418D0D7
:10F608007651040D9B0EF324F66EFE0EF420F76E71
:10F618000900F550695D0900F5506A590900F5506F
:10F628006B590900F5506C59D8A002D0762BE4D755
:10F63800030E65154E6E000E66154F6E4E504F1038
:10F64800D8B403D02D0EE4EC67F000017651676F53
:10F65800686B67BF68073FD067C04EF068C04FF05F
:10F66800D8904E364F36D8904E364F369B0E4E2495
:10F67800F66EFE0E4F20F76E0900F5CF05F0090073
:10F68800F5CF06F00900F5CF07F00A00F5CF08F02E
:10F6980069C001F06AC002F06BC003F06CC004F0EE
:10F6A800A2EC69F001C00EF002C00FF003C010F028
:10F6B80004C011F00A0E126E000E136E000E146EC6
:10F6C800000E156EFBEC68F00E50300F0001766FDF
:10F6D8007651E4EC67F000016707D8A0680767294E
:10F6E800BBE16829D8A4B8D749C0F6FF4AC0F7FFDC
:10F6F800494A4A2A0800F5CF76F000017651D8B475
:10F7080012007FD4FEEC67F0000E0001BE6F000E01
:10F71800BD6F000EC06F000EBF6F000EC26F000EEF
:10F72800C16F000EA46F000EA36F000EA66F000E2F
:10F73800A56F000EA86F000EA76F000EBC6F000E1D
:10F74800BB6F95920001BB4BBC2B180E42EC68F0C6
:10F7580001C0C1F002C0C2F0190E42EC68F001C04D
:10F76800BFF002C0C0F01A0E42EC68F001C0BDF054
:10F7780002C0BEF0800E3A6ED40E3B6EC40E3C6ED4
:10F78800120E2B6E830E2C6E3F0E2D6EBDC00FF029
:10F79800BEC010F0000E126E050E116E2FEC68F050
:10F7A8000FC015F010C016F072EC68F015C028F004
:10F7B80016C029F017C02AF047EC6CF028C037F0C3
:10F7C80029C038F02AC039F0F1EC70F037C0C3F026
:10F7D80038C0C4F039C0C5F0C3C028F0C4C029F08F
:10F7E800C5C02AF0000E2B6EA50E2C6E430E2D6E92
:10F7F80047EC6CF028C0D8F029C0D9F02AC0DAF05C
:10F80800800E3A6ED40E3B6EC40E3C6E120E2B6EFA
:10F81800830E2C6E3F0E2D6EBFC00FF0C0C010F0CF
:10F82800000E126E050E116E2FEC68F00FC015F069
:10F8380010C016F072EC68F015C028F016C029F058
:10F8480017C02AF047EC6CF028C037F029C038F010
:10F858002AC039F0F1EC70F037C0C3F038C0C4F0FA
:10F8680039C0C5F0C3C028F0C4C029F0C5C02AF00B
:10F87800000E2B6EA50E2C6E430E2D6E47EC6CF011
:10F8880028C0DBF029C0DCF02AC0DDF0800E3A6E1B
:10F89800D40E3B6EC40E3C6E120E2B6E830E2C6E75
:10F8A8003F0E2D6EC1C00FF0C2C010F0000E126ED8
:10F8B800050E116E2FEC68F00FC015F010C016F091
:10F8C80072EC68F015C028F016C029F017C02AF0AD
:10F8D80047EC6CF028C037F029C038F02AC039F05E
:10F8E800F1EC70F037C0C3F038C0C4F039C0C5F0CF
:10F8F800C3C028F0C4C029F0C5C02AF0000E2B6E82
:10F90800A50E2C6E430E2D6E47EC6CF028C0DEF071
:10F9180029C0DFF02AC0E0F0000E0001636F000E7E
:10F92800646F400E656FDEC060F0DFC061F0E0C05C
:10F9380062F06AEC6FF060C0C6F061C0C7F062C0E8
:10F94800C8F0000E0001636F000E646F400E656F13
:10F95800DBC060F0DCC061F0DDC062F06AEC6FF023
:10F9680060C0C9F061C0CAF062C0CBF0C6C03AF04E
:10F97800C7C03BF0C8C03CF0C9C037F0CAC038F0B7
:10F98800CBC039F0F1EC70F037C0CCF038C0CDF016
:10F9980039C0CEF0CCC071F0CDC072F0CEC073F0DB
:10F9A80028EC70F071C02BF072C02CF073C02DF0F1
:10F9B800D8C028F0D9C029F0DAC02AF047EC6CF09A
:10F9C80028C0CFF029C0D0F02AC0D1F0CFC084F031
:10F9D800D0C085F0D1C086F0C7EC71F084C0D2F0F9
:10F9E80085C0D3F086C0D4F0D2C019F0D3C01AF0C5
:10F9F800D4C01BF02F0E1C6E650E1D6E420E1E6EBF
:10FA0800BAEC6CF019C0A9F01AC0AAF01BC0ABF090
:10FA1800000E0001636F000E646F400E656FDEC05C
:10FA280060F0DFC061F0E0C062F06AEC6FF060C0C7
:10FA3800C6F061C0C7F062C0C8F0000E0001636F75
:10FA4800000E646F400E656FD8C060F0D9C061F0D9
:10FA5800DAC062F06AEC6FF060C0C9F061C0CAF049
:10FA680062C0CBF0C6C03AF0C7C03BF0C8C03CF09B
:10FA7800C9C037F0CAC038F0CBC039F0F1EC70F02B
:10FA880037C0CCF038C0CDF039C0CEF0CCC071F062
:10FA9800CDC072F0CEC073F028EC70F071C02BF0BE
:10FAA80072C02CF073C02DF0DBC028F0DCC029F048
:10FAB800DDC02AF047EC6CF028C0CFF029C0D0F0A8
:10FAC8002AC0D1F0CFC084F0D0C085F0D1C086F074
:10FAD800C7EC71F084C0D2F085C0D3F086C0D4F0F2
:10FAE800D2C019F0D3C01AF0D4C01BF02F0E1C6E70
:10FAF800650E1D6E420E1E6EBAEC6CF019C0ACF0AD
:10FB08001AC0ADF01BC0AEF0000E0001636F000E0E
:10FB1800646F400E656FD8C060F0D9C061F0DAC07C
:10FB280062F06AEC6FF060C0C6F061C0C7F062C0F6
:10FB3800C8F0000E0001636F000E646F400E656F21
:10FB4800DBC060F0DCC061F0DDC062F06AEC6FF031
:10FB580060C0C9F061C0CAF062C0CBF0C6C03AF05C
:10FB6800C7C03BF0C8C03CF0C9C037F0CAC038F0C5
:10FB7800CBC039F0F1EC70F037C0CCF038C0CDF024
:10FB880039C0CEF0DEC02BF0DFC02CF0E0C02DF085
:10FB9800CCC071F0CDC072F0CEC073F028EC70F01C
:10FBA80071C028F072C029F073C02AF047EC6CF0DD
:10FBB80028C0CFF029C0D0F02AC0D1F0CFC084F03F
:10FBC800D0C085F0D1C086F0C7EC71F084C0D2F007
:10FBD80085C0D3F086C0D4F0D2C019F0D3C01AF0D3
:10FBE800D4C01BF02F0E1C6E650E1D6E420E1E6ECD
:10FBF800BAEC6CF019C0AFF01AC0B0F01BC0B1F08D
:10FC0800DEC097F0DFC098F0E0C099F0DBC094F058
:10FC1800DCC095F0DDC096F0C6EC74F094C0D5F069
:10FC280095C0D6F096C0D7F02F0E1C6E650E1D6ECF
:10FC3800420E1E6ED5C019F0D6C01AF0D7C01BF000
:10FC4800BAEC6CF019C037F01AC038F01BC039F0A4
:10FC5800000E3A6E340E3B6E430E3C6EF1EC70F0C3
:10FC680037C0B2F038C0B3F039C0B4F0D8C097F09C
:10FC7800D9C098F0DAC099F0DEC094F0DFC095F0F2
:10FC8800E0C096F0C6EC74F094C0D5F095C0D6F0FC
:10FC980096C0D7F02F0E1C6E650E1D6E420E1E6E9E
:10FCA800D5C019F0D6C01AF0D7C01BF0BAEC6CF06A
:10FCB80019C037F01AC038F01BC039F0000E3A6E80
:10FCC800340E3B6E430E3C6EF1EC70F037C0B5F06D
:10FCD80038C0B6F039C0B7F0DBC097F0DCC098F098
:10FCE800DDC099F0D8C094F0D9C095F0DAC096F08C
:10FCF800C6EC74F094C0D5F095C0D6F096C0D7F095
:10FD08002F0E1C6E650E1D6E420E1E6ED5C019F0AC
:10FD1800D6C01AF0D7C01BF0BAEC6CF019C037F097
:10FD28001AC038F01BC039F0000E3A6E340E3B6E24
:10FD3800430E3C6EF1EC70F037C0B8F038C0B9F043
:10FD480039C0BAF06B0E496EFF0E4A6EBBC04BF05D
:10FD5800BCC04CF0FFEC77F0EA0E496EFF0E4A6E1D
:10FD6800BDC04BF0BEC04CF0FFEC77F0F10E496E11
:10FD7800FF0E4A6EBFC04BF0C0C04CF0FFEC77F0EE
:10FD8800F80E496EFF0E4A6EC1C04BF0C2C04CF06F
:10FD9800FFEC77F07D0E496EFF0E4A6ED8C04BF02F
:10FDA800D9C04CF0DAC04DF0FFEC77F0980E496EF0
:10FDB800FF0E4A6EDBC04BF0DCC04CF0DDC04DF0EE
:10FDC800FFEC77F0A50E496EFF0E4A6EDEC04BF0D1
:10FDD800DFC04CF0E0C04DF0FFEC77F0BE0E496E8E
:10FDE800FF0E4A6EA9C04BF0AAC04CF0ABC04DF054
:10FDF800FFEC77F0D50E496EFF0E4A6EACC04BF0A3
:10FE0800ADC04CF0AEC04DF0FFEC77F0CA0E496EB5
:10FE1800FF0E4A6EAFC04BF0B0C04CF0B1C04DF011
:10FE2800FFEC77F0B20E496EFF0E4A6EB2C04BF08F
:10FE3800B3C04CF0B4C04DF0FFEC77F08B0E496EB8
:10FE4800FF0E4A6EB5C04BF0B6C04CF0B7C04DF0CF
:10FE5800FFEC77F0E00E496EFF0E4A6EB8C04BF02B
:10FE6800B9C04CF0BAC04DF0FFEC77F08382410E78
:10FE78005F6EEE0EE82EFED75F2EFCD700D0839281
:10FE8800410E5F6EEE0EE82EFED75F2EFCD700D037
:10FE980059D400010000000A00000064000000E8D6
:10FEA80003000010270000A086010040420F0080D8
:10FEB80096980000E1F50500CA9A3B00803F0020B3
:10FEC8004100C842007A44401C4650C34724744944
:10FED80097184BBCBE4C6B6E4E03155079AD60F352
:10FEE800497100803FCDCC3DD7233C12833AB7D12E
:10FEF80038C62737388635C0D633CC2B3270893090
:10FF0800E7DB2EE53C1E42A20D00803F72313FFE2A
:10FF1800753E58633D951D3CC5AE3A7921399480AC
:10FF28003793A73556153400000000803FF0FFBE18
:10FF3800E2A93E8376BEAE2B3E3CC3BDD2133D78CC
:10FF4800D3BB3C04429F6A429001424DBB40EC4700
:10FF58003E8E1FBB3C04425A8B420444429C4F4194
:10FF680000803F0D0A0A53746172742D2D2D2D2DBA
:10FF78002D2D2564000D0A41786F7574203D2025CC
:10FF88006667000D0A5069746368203D2025660085
:10FF98000D0A41796F7574203D256667000D0A4189
:10FFA8007A6F7574203D256667000D0A526F6C6C78
:10FFB800203D202566000D0A5468657461203D25A2
:10FFC80066000D0A506869203D202566000D0A501C
:10FFD8007379203D202566000D0A596177203D255B
:10FFE80066000D0A583D2564000D0A593D25640038
:08FFF8000D0A5A3D25640000CA
:020000040020DA
:08000000FFFFFFFFFFFFFFFF00
:020000040030CA
:0E000000FF281F3CFFBF81FF0FC00FE00F4025
:00000001FF
